:100000000C9468000C9490000C9490000C94900058
:100010000C9490000C9490000C9490000C94900020
:100020000C9490000C9490000C9490000C94900010
:100030000C9490000C9490000C9490000C94900000
:100040000C9448080C9490000C9428070C945A07C0
:100050000C9490000C9490000C9490000C949000E0
:100060000C9490000C949000F602F902FC02FF023E
:100070000203050308030B030E030000000800023F
:10008000010000030407000000000000000001025E
:100090000408102040800102040810200102040816
:1000A00010200404040404040404020202020202F4
:1000B00003030303030300000000250028002B00B6
:1000C00000000000240027002A00AD008A07B100CC
:1000D00011241FBECFEFD8E0DEBFCDBF12E0A0E0FD
:1000E000B1E0E2E3F0E202C005900D92AC33B1075B
:1000F000D9F723E0ACE3B2E001C01D92A137B2070B
:10010000E1F710E0C7E6D0E004C02197FE010E94AD
:10011000F109C536D107C9F70E9437080C940C10B5
:100120000C940000FC010FB6F89460916D0370917F
:100130006E0380916F03909170030FBE309721F092
:10014000608371838283938308958CE392E00C949F
:10015000D3048CE392E00C943A058CE392E00C9487
:10016000A7048CE392E00C94C604FC018DE080832C
:1001700081831282138280E090E00E949200CB0182
:100180000C94830B6D3028F4FC01608380E090E0D8
:10019000089581E090E008956D3028F4FC016183BA
:1001A00080E090E0089581E090E0089561E085E1CD
:1001B0000E94630961E084E10E94630961E082E1D9
:1001C0000E94630961E083E10E94630961E08EE0BF
:1001D0000E94630961E08FE00E94630961E080E1B1
:1001E0000E94630961E081E10E94630961E082E1AC
:1001F0000E94630961E08AE00E94630961E082E095
:100200000E94630961E089E00E94630961E083E183
:100210000E94630961E083E00E94630961E08AE073
:100220000E94630961E085E00E94630961E086E065
:100230000E94630961E087E00E94630961E088E051
:100240000C946309CF93C82F682F61708EE00E94D1
:100250009F09C1FB662760F98FE00E949F09C2FBDE
:10026000662760F980E10E949F09C3FB662760F959
:1002700081E1CF910C949F09CF93DF93EC01682F1C
:10028000617085E00E949F09BE0176956795617057
:1002900086E00E949F09BE017695679576956795E1
:1002A000617087E00E949F0923E0D695C7952A9543
:1002B000E1F76C2F617088E0DF91CF910C949F097A
:1002C000C0E08C2F0E94220100E010E0C8010E94D3
:1002D0003C0164E670E080E090E00E94C3080F5F9C
:1002E0001F4F0C30110591F7CF5FCC3049F3E9CFA8
:1002F000EC010E94D600CE010E946001CF936230D3
:10030000710510F44E30A8F4C42FC1706C2F8EE02C
:100310000E949F096C2F8FE00E949F096C2F80E143
:100320000E949F096C2F81E10E949F0980E090E06C
:1003300002C081E090E0CF910895CF93DF93EB016D
:1003400060E085E10E949F0960E084E10E949F09CE
:1003500060E0CD2B11F482E101C083E1DF91CF9108
:100360000C949F09CF93DF93EC019B8189819817AF
:1003700069F060E070E0CE010E949D01498160E07B
:1003800070E0CE010E947E0189818B839A818881F1
:10039000981769F061E070E0CE010E949D014981EB
:1003A00061E070E0CE010E947E0188818A8380E056
:1003B00090E0DF91CF910895CF93DF93EC014881D6
:1003C000598160E070E026E081EC92E00E94C30673
:1003D00081E08A8380E090E0DF91CF910895FC0175
:1003E0007183608312820C94DC0181EC92E00C94A6
:1003F000E705EF92FF920F931F93CF93DF93CDB753
:10040000DEB7C250D2400FB6F894DEBF0FBECDBFEC
:10041000FC018281882351F18B0180E092E0CF5F63
:10042000DD4F99838883C150D240AE014F5F5D4F4D
:10043000CE0101967C01BC01C8010E940904F701AC
:1004400001900020E9F73197AF014E195F09B7011C
:1004500081EC92E00E94B7077C01C8010E943A0338
:100460008E159F0531F480E090E005C083E090E0B8
:1004700002C084E090E0CE5FDD4F0FB6F894DEBF9F
:100480000FBECDBFDF91CF911F910F91FF90EF90E5
:1004900008958F929F92AF92BF92CF92DF92EF9288
:1004A000FF920F931F93CF93DF93CDB7DEB7E29701
:1004B0000FB6F894DEBF0FBECDBF6C017B01611596
:1004C000710531F0FB01A080B180A114B10449F4A1
:1004D00026E030E040E050E0BA01C6010E94170378
:1004E00043C08E010F5F1F4F82E3F80111928A957E
:1004F000E9F7FB0111821082812C912CB801680D63
:10050000791DA50181EC92E00E941108F70120817C
:100510003181820F931F91838083AA24BB24A81A60
:10052000B90A880E991E6AE070E0C8010E94AD0CFD
:10053000892B19F41A141B040CF3F8010190002004
:10054000E9F73197AF01401B510BB80181EC92E004
:100550000E94B707F70180819181892B09F4B8CFF8
:10056000B801C6010E949403C601E2960FB6F89442
:10057000DEBF0FBECDBFDF91CF911F910F91FF90D6
:10058000EF90DF90CF90BF90AF909F908F900895A5
:100590000F931F93CF93DF93EC018B0161157105CE
:1005A00029F0FB0180819181892B49F426E030E01C
:1005B00040E050E0BA01CE010E94170309C00E943A
:1005C000F5011816190694F7B801CE010E944902E8
:1005D000CE01DF91CF911F910F9108958930910540
:1005E00018F5FC01EC5CFF4F0C94F1096EE671E02C
:1005F00017C067E771E014C065E871E011C065E9F4
:1006000071E00EC066EA71E00BC065EB71E008C0F6
:1006100068EC71E005C069ED71E002C069EE71E05F
:1006200081E492E00E94B80C81E492E00895FC011C
:1006300011821082338322834483558366837783B8
:1006400088E292E0918780870895CF93DF93EC0151
:10065000CB010E94EE021982188225E030E03B8334
:100660002A831C821D821E821F8299878887DF91C0
:10067000CF910895FC01808191810895CF92DF92FE
:10068000EF92FF920F931F93CF93DF93CDB7DEB717
:100690002C970FB6F894DEBF0FBECDBF009791F137
:1006A0006115710579F1452B69F18B017C010E947F
:1006B000CE0C6C016AE070E0C7010E94AD0CF8013D
:1006C00001900020E9F7BF01601B710B6C0D7D1DCF
:1006D000AC01461B570B8E010F5F1F4FC8010E94D4
:1006E000BF0CF80101900020E9F7CF0101979C872A
:1006F0008B874AE050E0BE01655F7F4FC8010E94D2
:100700008E0B03C06FEF7FEFCB012C960FB6F894E2
:10071000DEBF0FBECDBFDF91CF911F910F91FF9034
:10072000EF90DF90CF900895AF92BF92CF92DF927B
:10073000EF92FF920F931F93CF93DF93EC017B0116
:100740008AE0A82E81E0B82E00E010E0F501C1900B
:10075000D1905F01B601C7010E94CE0C892B09F42C
:1007600041C00230110559F13CF40115110561F049
:1007700001301105D9F036C004301105B9F04CF044
:1007800005301105E1F02EC0198218821B821A82F1
:1007900011C047E252E0B601C7010E943E03198230
:1007A000188223E030E03B832A8313C01982188229
:1007B0001B830A831C821D821E821F820EC047E299
:1007C00052E0B601C7010E943E03198218821B83C2
:1007D0000A836C837D838E839F8388E292E099876E
:1007E00088870BC00F5F1F4F0233110509F0AECF92
:1007F00067E070E0CE010E942503CE01DF91CF912A
:100800001F910F91FF90EF90DF90CF90BF90AF902E
:100810000895CF92DF92EF92FF920F931F93CF93A1
:10082000DF93CDB7DEB7E2970FB6F894DEBF0FBE09
:10083000CDBF6115710509F46CC04115510509F46E
:1008400068C08A017B01FC0122813381C9010297C2
:10085000AE014F5F5F4F6A010297D0F487818F939B
:1008600086818F9385818F9384818F93220F331F8D
:10087000F901E65FFE4F81818F9380818F9386EF30
:1008800091E09F938F935F934F930E94E80C15C064
:1008900025303105C1F481858F9380858F938091B8
:1008A00015018F93809114018F938DEF91E09F93A9
:1008B0008F935F934F930E94E80C0FB6F894DEBFBE
:1008C0000FBECDBF17C0220F331FF901E65FFE4FE9
:1008D00081818F9380818F9380E092E09F938F93AB
:1008E0005F934F930E94E80C0F900F900F900F9022
:1008F0000F900F90F801208131812817390764F09B
:1009000091838083B601C7010E94B80C80E090E01B
:1009100005C086E090E002C085E090E0E2960FB668
:10092000F894DEBF0FBECDBFDF91CF911F910F9125
:10093000FF90EF90DF90CF900895FC01828193812A
:100940000895FC01648175818681978108950F93D4
:100950001F93CF93DF93EC011C8284E090E00E9410
:1009600046088C010E94B5001983088383E090E05B
:100970000E9446088C0160E875E20E94EF011B832B
:100980000A83DF91CF911F910F910895CF93DF9349
:10099000EC01888199810E94A90A8A819B81DF915B
:1009A000CF910C94A90ACF93DF93EC0188819981B0
:1009B0000E947801009731F48A819B81DF91CF9169
:1009C0000C94DC01DF91CF910895CF92DF92EF92EA
:1009D000FF920F931F93CF93DF93CDB7DEB72A9784
:1009E0000FB6F894DEBF0FBECDBFC982DA82EB82AC
:1009F000FC820D831E832F83388749875A87DC0149
:100A000014962C91222319F18C016330710551F455
:100A1000CE0101960E94A104F801808191810E947B
:100A2000C2000CC06230710551F4CE0101960E94E3
:100A3000A104D8018D919C910E94CC00FC013097BB
:100A400049F4F801808191810E94B20104C088E0DC
:100A500090E001C0CF012A960FB6F894DEBF0FBE1A
:100A6000CDBFDF91CF911F910F91FF90EF90DF905D
:100A7000CF9008958F929F92AF92BF92CF92DF92C4
:100A8000EF92FF920F931F93CF93DF93CDB7DEB713
:100A9000AA970FB6F894DEBF0FBECDBF4C0182E31C
:100AA00090E09AA789A7BE01675D7F4FCE014F9660
:100AB0000E94C802CE014F960E949D045C0186E010
:100AC000A816B10409F470C0BF92AF9282E292E01E
:100AD0009F938F938E010B5E1F4F1F930F930E9466
:100AE000E80CF80101900020E9F73197AF01401BB5
:100AF000510BB80181EC92E00E94B70724E030E08E
:100B000040E050E0BA01CE010B960E9417030F900F
:100B10000F900F900F900F900F90E5E0AE16B1047C
:100B200051F48AE0FE017F96DE011B9601900D9242
:100B30008A95E1F70DC0F1E0AF16B10421F481E030
:100B4000F401848305C0A114B10411F4F4011482EA
:100B5000C50102970297F0F4CF8CD8A0E9A0FAA0C3
:100B60000BA11CA12DA13EA14FA158A5B501C40107
:100B70000E94E504009771F0BC01CE0101960E942D
:100B800025038AE0FE013196DE011B9601900D924D
:100B90008A95E1F7BE01655F7F4FF4018281938101
:100BA0000E94F901009701F4AA960FB6F894DEBFEF
:100BB0000FBECDBFDF91CF911F910F91FF90EF90AE
:100BC000DF90CF90BF90AF909F908F900895FC01E1
:100BD000918D228D892F90E0805C9F4F821B91091F
:100BE0008F7399270895FC01918D828D981731F0AC
:100BF000828DE80FF11D858D90E008958FEF9FEFB6
:100C00000895FC01918D828D981761F0828DDF012E
:100C1000A80FB11D5D968C91928D9F5F9F73928FEF
:100C200090E008958FEF9FEF0895FC01538D448D60
:100C3000252F30E0842F90E0821B930B541710F087
:100C4000CF9608950197089580E897E0892B49F0A1
:100C500080E090E0892B29F00E94800781110C949C
:100C600000000895FC01848DDF01A80FB11DA35A77
:100C7000BF4F2C91848D90E001968F739927848FBC
:100C8000A689B7892C93A089B1898C9183708064DF
:100C90008C93938D848D981306C00288F389E02D80
:100CA00080818F7D80830895EF92FF920F931F9331
:100CB000CF93DF93EC0181E0888F9B8D8C8D98130F
:100CC00005C0E889F989808185FD26C0F62E0B8D47
:100CD00010E00F5F1F4F0F731127E02E8C8DE8126D
:100CE0000CC00FB607FCFACFE889F989808185FF2F
:100CF000F5CFCE010E943206F1CF8B8DFE01E80FB9
:100D0000F11DE35AFF4FF0829FB7F8940B8FEA89E9
:100D1000FB89808180620AC09FB7F894EE89FF89C1
:100D20006083E889F98980818370806480839FBFB4
:100D300081E090E0DF91CF911F910F91FF90EF90B4
:100D40000895CF93DF93EC01888D8823C9F0EA8959
:100D5000FB89808185FD05C0A889B9898C9186FDB4
:100D60000FC00FB607FCF5CF808185FFF2CFA889B1
:100D7000B9898C9185FFEDCFCE010E943206E7CF75
:100D8000DF91CF910895CF92DF92EF92FF921F9360
:100D9000CF93DF93EC016A017B01122FE889F98977
:100DA00082E080834115514E61057105B1F060E02C
:100DB00079E08DE390E0A70196010E94CF09DA0166
:100DC000C9010197A109B109B695A795979587958E
:100DD0009C01211580E13807A8F0E889F989108283
:100DE00060E874E88EE190E0A70196010E94CF09C7
:100DF000DA01C9010197A109B109B695A79597959F
:100E000087959C01EC85FD853083EE85FF852083E9
:100E1000188EEC89FD891083EA89FB8980818061C5
:100E20008083EA89FB89808188608083EA89FB89E5
:100E3000808180688083EA89FB8980818F7D8083BF
:100E4000DF91CF911F91FF90EF90DF90CF900895A9
:100E50001F920F920FB60F9211242F938F939F938F
:100E6000EF93FF93E091D102F091D2028081E09163
:100E7000D702F091D80282FD12C090818091DA02EF
:100E80008F5F8F732091DB02821751F0E091DA02BD
:100E9000F0E0EF53FD4F958F8093DA0201C080811F
:100EA000FF91EF919F918F912F910F900FBE0F9017
:100EB0001F9018951F920F920FB60F9211242F9327
:100EC0003F934F935F936F937F938F939F93AF93D2
:100ED000BF93EF93FF9381EC92E00E943206FF9163
:100EE000EF91BF91AF919F918F917F916F915F91A2
:100EF0004F913F912F910F900FBE0F901F9018951B
:100F000081EC92E00E94E70521E0892B09F420E0C2
:100F1000822F0895E1ECF2E01382128288EE93E0D2
:100F2000A0E0B0E084839583A683B7838DE292E04E
:100F30009183808385EC90E09587848784EC90E0B2
:100F40009787868780EC90E0918B808B81EC90E096
:100F5000938B828B82EC90E0958B848B86EC90E077
:100F6000978B868B118E128E138E148E0895CF92CE
:100F7000DF92EF92FF920F931F93CF93DF936C0159
:100F80007A018B01C0E0D0E0CE15DF0581F0D801F9
:100F90006D918D01D601ED91FC910190F081E02DD4
:100FA000C6010995892B11F02196EECF7E01C7016C
:100FB000DF91CF911F910F91FF90EF90DF90CF9035
:100FC00008950F931F93CF93DF93EC010E94920833
:100FD000688779878A879B87E881F9810284F3850E
:100FE000E02DCE01099597FF17C00E949208088551
:100FF00019852A853B85DC01CB01801B910BA20B57
:10100000B30B0C811D812E813F8180179107A207B0
:10101000B30710F38FEF9FEFDF91CF911F910F91E7
:101020000895CF92DF92EF92FF920F931F93CF9389
:10103000DF936C017A018B01C0E0D0E0CE15DF05B3
:1010400059F0C6010E94E10797FD05C0F8018193A0
:101050008F012196F3CF7E01C701DF91CF911F91C0
:101060000F91FF90EF90DF90CF90089508950E9428
:10107000FF080E9436080E94A500C4E2D6E00E9444
:10108000A9002097E1F30E942406F9CF0C94110ADD
:101090001F920F920FB60F9211242F933F938F93AD
:1010A0009F93AF93BF9380915F0390916003A09152
:1010B0006103B091620330915E0323E0230F2D376B
:1010C00020F40196A11DB11D05C026E8230F02964C
:1010D000A11DB11D20935E0380935F039093600375
:1010E000A0936103B09362038091630390916403C2
:1010F000A0916503B09166030196A11DB11D809377
:10110000630390936403A0936503B0936603BF9158
:10111000AF919F918F913F912F910F900FBE0F90A4
:101120001F9018952FB7F89460915F03709160033A
:1011300080916103909162032FBF08953FB7F894A7
:101140008091630390916403A0916503B09166035D
:1011500026B5A89B05C02F3F19F00196A11DB11D12
:101160003FBFBA2FA92F982F8827820F911DA11D4D
:10117000B11DBC01CD0142E0660F771F881F991F8A
:101180004A95D1F708958F929F92AF92BF92CF92D6
:10119000DF92EF92FF926B017C010E949E084B014F
:1011A0005C01C114D104E104F10401F10E94CE09F3
:1011B0000E949E08DC01CB0188199909AA09BB0984
:1011C000883E9340A105B10560F321E0C21AD10821
:1011D000E108F10888EE880E83E0981EA11CB11C7E
:1011E000C114D104E104F10419F7DBCFFF90EF90B3
:1011F000DF90CF90BF90AF909F908F90089578949C
:1012000084B5826084BD84B5816084BD85B582600B
:1012100085BD85B5816085BDEEE6F0E080818160A9
:101220008083E1E8F0E010828081826080838081A9
:1012300081608083E0E8F0E0808181608083E1EB81
:10124000F0E0808184608083E0EBF0E08081816069
:101250008083EAE7F0E0808184608083808182601F
:101260008083808181608083808180688083109208
:10127000C1000895833081F028F4813099F08230E4
:10128000A1F008958730A9F08830B9F08430D1F406
:10129000809180008F7D03C0809180008F77809344
:1012A0008000089584B58F7702C084B58F7D84BD9A
:1012B00008958091B0008F7703C08091B0008F7D3A
:1012C0008093B0000895CF93DF9390E0FC01E25744
:1012D000FF4F2491FC01EE55FF4F8491882361F16B
:1012E00090E0880F991FFC01E054FF4FC591D49105
:1012F000FC01EA54FF4FA591B491611109C09FB759
:10130000F8948881209582238883EC912E230BC04A
:10131000623061F49FB7F8948881322F309583232F
:101320008883EC912E2B2C939FBF06C08FB7F89427
:10133000E8812E2B28838FBFDF91CF9108951F93D3
:10134000CF93DF93282F30E0F901E658FF4F8491C7
:10135000F901E257FF4FD491F901EE55FF4FC491C7
:10136000CC23C1F0162F81110E943A09EC2FF0E036
:10137000EE0FFF1FEA54FF4FA591B4919FB7F89469
:10138000111104C08C91D095D82302C0EC91DE2BB2
:10139000DC939FBFDF91CF911F9108950895A1E243
:1013A0001A2EAA1BBB1BFD010DC0AA1FBB1FEE1FDF
:1013B000FF1FA217B307E407F50720F0A21BB30B2A
:1013C000E40BF50B661F771F881F991F1A9469F7A6
:1013D00060957095809590959B01AC01BD01CF0102
:1013E0000895EE0FFF1F0590F491E02D09940E94DF
:1013F000020AA59F900DB49F900DA49F800D911D92
:1014000011240895A29FB001B39FC001A39F700D46
:10141000811D1124911DB29F700D811D1124911DFC
:1014200008950F931F93CF93DF938230910510F4AB
:1014300082E090E0E0916903F0916A0320E030E0FF
:10144000A0E0B0E0309719F1408151810281138111
:1014500048175907C8F08417950769F4109731F0B9
:1014600012960C93129713961C9327C0009369034E
:1014700010936A0322C02115310519F04217530752
:1014800018F49A01BD01EF01DF01F801DBCF21154E
:101490003105F9F0281B390B2430310580F48A819D
:1014A0009B816115710521F0FB019383828304C048
:1014B00090936A0380936903FE01329644C0FE0153
:1014C000E20FF31F819391932250310939832883CE
:1014D0003AC02091670330916803232B41F4209197
:1014E0000201309103013093680320936703209138
:1014F0000001309101012115310541F42DB73EB7AE
:101500004091040150910501241B350BE0916703C4
:10151000F0916803E217F307A0F42E1B3F0B281786
:10152000390778F0AC014E5F5F4F2417350748F05C
:101530004E0F5F1F5093680340936703819391930D
:1015400002C0E0E0F0E0CF01DF91CF911F910F9159
:101550000895CF93DF93009709F481C0FC0132977F
:1015600013821282A0916903B0916A03109781F4EB
:1015700020813181820F931F20916703309168038E
:101580002817390751F5F0936803E093670367C0A4
:10159000ED0120E030E0CE17DF0740F44A815B81A7
:1015A0009E0141155105F1F0EA01F5CFD383C283C5
:1015B00040815181840F951FC817D90759F488813C
:1015C0009981840F951F0296918380838A819B81E4
:1015D000938382832115310529F4F0936A03E09304
:1015E00069033DC0E901FB83EA8349915991C40F26
:1015F000D51FEC17FD0761F480819181840F951F41
:101600000296E90199838883828193819B838A83EF
:10161000E0E0F0E012968D919C911397009719F0FD
:10162000FD01DC01F7CF8D919C9111979D012E5FFB
:101630003F4F820F931F2091670330916803281753
:10164000390769F4309729F410926A0310926903FC
:1016500002C013821282B0936803A0936703DF91E4
:10166000CF9108958F929F92AF92BF92CF92DF92C7
:10167000EF92FF92CF93DF93EC01688179818A81A9
:101680009B81611571058105910521F464E279ED75
:101690008BE597E02DE133EF41E050E00E94AE0F83
:1016A00049015A019B01AC01A7EAB1E40E94F70984
:1016B0006B017C01ACEEB4EFA50194010E94D00F48
:1016C000DC01CB018C0D9D1DAE1DBF1DB7FF03C0FE
:1016D0000197A109B04888839983AA83BB839F7728
:1016E000DF91CF91FF90EF90DF90CF90BF90AF90C0
:1016F0009F908F9008950E94320B089586E091E0AC
:101700000E94320B0895A0E0B0E080930601909310
:101710000701A0930801B09309010895A0E0B0E08B
:10172000E4E9FBE00C94D60F5C016B017A016115D2
:10173000710519F0FB0191838083E114F10429F014
:10174000C7010297839708F0E5C0E5012196F501EE
:101750001081812F90E00E94A40C892B11F05E0172
:10176000F4CF1D3229F42196F501118101E007C063
:101770001B3221F4E5012296F501118100E0E1140C
:10178000F10409F1F0E1EF16F10429F43FC010E390
:10179000E114F10421F128E0E216F10401F154F41E
:1017A000E2E0EE16F10421F5812C912CA12CB0E49D
:1017B000BB2E3EC0FAE0EF16F10439F020E1E2164C
:1017C000F104B1F430C0103319F1FAE0EF2EF12C2E
:1017D000ACEC8A2E982CA82CACE0BA2E29C078E06C
:1017E000E72EF12C812C912CA12CE0E1BE2E20C003
:1017F00060E070E080E090E897010F2C000C440B53
:10180000550B0E94CF0949015A0112C0103359F4F7
:1018100088818F7D883509F0BACF198122960260C0
:1018200080E1E82EF12C812C912CA12C68E0B62EC1
:1018300040E060E070E0CB0127010F2C000C66084F
:101840007708FE0150ED352E310E29E0231570F496
:101850002FEB210F2A3118F439EC332E06C02FE973
:10186000210F2A3118F529EA322E310E232D30E0CE
:101870002E153F05DCF447FD16C086169706A80610
:10188000B90670F0A30192010E949E0F630D711DB5
:10189000811D911D61307105810520E8920710F0CE
:1018A0004FEF01C041E021961081CBCF202F217056
:1018B000C114D10471F0442329F02197F601D1839A
:1018C000C08307C001FF19C02297F601D183C083EE
:1018D00014C047FF12C0222329F060E070E080E0CE
:1018E00090E804C06FEF7FEF8FEF9FE722E230E0D8
:1018F00030936C0320936B0309C0222381F09095F1
:101900008095709561957F4F8F4F9F4F462F372F52
:10191000282F12C040E030E020E090E00DC097FF9B
:10192000F5CF82E290E090936C0380936B036FEFAE
:101930007FEF8FEF9FE7EACF642F732F822FCDB712
:10194000DEB7E1E10C94F20F91110C94EB0E8032B2
:1019500019F089508550C8F70895FC0181918617C8
:1019600021F08823D9F7992708953197CF01089559
:10197000FB01DC0101900D920020E1F70895FB01CD
:10198000DC014150504048F001900D920020C9F711
:1019900001C01D9241505040E0F70895FB01519164
:1019A0005523A9F0BF01DC014D9145174111E1F725
:1019B00059F4CD010190002049F04D91401541119D
:1019C000C9F3FB014111EFCF81E090E00197089549
:1019D000AEE0B0E0EEEEFCE00C94E30F0D891E8962
:1019E00086E08C831A8309838FEF9FE79E838D8324
:1019F000AE01475E5F4F6F89788DCE0101960E94E0
:101A00000A0DEF81F885E00FF11F10822E96E4E0B9
:101A10000C94FF0FABE0B0E0E0E1FDE00C94D50FDB
:101A20006C017B018A01FC0117821682838181FF90
:101A3000CCC1CE0101963C01F6019381F70193FDE3
:101A4000859193FF81917F01882309F4BAC1853282
:101A500039F493FD859193FF81917F01853229F4BB
:101A6000B60190E00E94040FE7CF912C212C312C7D
:101A7000FFE1F315D8F08B3279F038F4803279F049
:101A80008332A1F4232D20611DC08D3261F080339B
:101A900069F4232D216016C0832D8260382EE32D3A
:101AA000E4603E2E2AC0F32DF8601DC037FC2DC027
:101AB00020ED280F2A3040F08E32B9F436FC81C177
:101AC000232D2064322E19C036FE06C08AE0989E6F
:101AD000200D1124922E11C0EAE02E9E200D11241B
:101AE000222EF32DF0623F2E08C08C3621F4832D78
:101AF0008068382E02C0883641F4F70193FD859145
:101B000093FF81917F018111B3CF982F9F7D9554D1
:101B1000933028F40C5F1F4F9FE399830DC08336E9
:101B200031F0833771F0833509F059C021C0F801D5
:101B3000808189830E5F1F4F88248394912C5301E9
:101B400013C02801F2E04F0E511CF801A080B180B3
:101B500036FE03C0692D70E002C06FEF7FEFC50154
:101B60000E94F90E4C018201F32DFF773F2E16C023
:101B7000280122E0420E511CF801A080B18036FEFF
:101B800003C0692D70E002C06FEF7FEFC5010E94B6
:101B9000EE0E4C01F32DF0683F2E820133FC1BC08A
:101BA000822D90E088169906B0F4B60180E290E0AC
:101BB0000E94040F2A94F4CFF50137FC859137FE7B
:101BC00081915F01B60190E00E94040F21102A94D8
:101BD00021E0821A91088114910471F7E8C08436DB
:101BE00011F0893641F5F80137FE07C06081718137
:101BF000828193810C5F1F4F08C060817181072E25
:101C0000000C880B990B0E5F1F4FF32DFF763F2EB4
:101C100097FF09C090958095709561957F4F8F4F84
:101C20009F4FF0683F2E2AE030E0A3010E94400F52
:101C3000882E861845C0853731F4232D2F7EB22E8D
:101C40002AE030E025C0932D997FB92E8F36C1F060
:101C500018F4883579F0B5C0803719F0883721F04D
:101C6000B0C0E92FE061BE2EB4FE0DC0FB2DF460C4
:101C7000BF2E09C034FE0AC0292F2660B22E06C02E
:101C800028E030E005C020E130E002C020E132E091
:101C9000F801B7FE07C060817181828193810C5F7A
:101CA0001F4F06C06081718180E090E00E5F1F4F82
:101CB000A3010E94400F882E8618FB2DFF773F2E30
:101CC00036FE0DC0232D2E7FA22E891458F434FE2B
:101CD0000BC032FC09C0832D8E7EA82E05C0B82C07
:101CE000A32C03C0B82C01C0B92CA4FE0FC0FE0168
:101CF000E80DF11D8081803321F49A2D997EA92E63
:101D000009C0A2FE06C0B394B39404C08A2D86789D
:101D100009F0B394A3FC11C0A0FE06C0B21488F46D
:101D2000280C922C9B180EC0B21460F4B60180E20D
:101D300090E00E94040FB394F7CFB21418F42B185C
:101D400002C0982C212CA4FE10C0B60180E390E0C4
:101D50000E94040FA2FE17C0A1FC03C088E790E018
:101D600002C088E590E0B6010CC08A2D867859F053
:101D7000A1FE02C08BE201C080E2A7FC8DE2B601A9
:101D800090E00E94040F891438F4B60180E390E0DB
:101D90000E94040F9A94F7CF8A94F301E80DF11D85
:101DA0008081B60190E00E94040F8110F5CF2220BF
:101DB00009F442CEB60180E290E00E94040F2A941A
:101DC000F6CFF6018681978102C08FEF9FEF2B96A9
:101DD000E2E10C94F10F992788270895FC01059002
:101DE000615070400110D8F7809590958E0F9F1F1D
:101DF0000895FC016150704001900110D8F7809562
:101E000090958E0F9F1F08950F931F93CF93DF938D
:101E1000FB01238121FD03C08FEF9FEF2CC022FF28
:101E200016C046815781248135814217530744F4F7
:101E3000A081B1819D012F5F3F4F318320838C931F
:101E4000268137812F5F3F4F3783268314C08B0154
:101E5000EC01FB010084F185E02D0995892BE1F669
:101E6000D80116968D919C911797019617969C9381
:101E70008E931697CE01DF91CF911F910F91089508
:101E8000FA01AA27283051F1203181F1E8946F93AB
:101E90006E7F6E5F7F4F8F4F9F4FAF4FB1E03ED051
:101EA000B4E03CD0670F781F891F9A1FA11D680FEF
:101EB000791F8A1F911DA11D6A0F711D811D911D22
:101EC000A11D20D009F468943F912AE0269F112497
:101ED0003019305D3193DEF6CF010895462F4770FB
:101EE000405D4193B3E00FD0C9F7F6CF462F4F7056
:101EF000405D4A3318F0495D31FD4052419302D0B4
:101F0000A9F7EACFB4E0A695979587957795679559
:101F1000BA95C9F700976105710508959B01AC0159
:101F20000A2E06945795479537952795BA95C9F780
:101F3000620F731F841F951FA01D0895DB018F93EF
:101F40009F930E94F709BF91AF91A29F800D911DB1
:101F5000A39F900DB29F900D11240895052E97FB1D
:101F60001EF400940E94C50F57FD07D00E94CF09B0
:101F700007FC03D04EF40C94C50F50954095309556
:101F800021953F4F4F4F5F4F0895909580957095E5
:101F900061957F4F8F4F9F4F0895B7FF0C94F709BE
:101FA0000E94F709821B930B08952F923F924F9244
:101FB0005F926F927F928F929F92AF92BF92CF92D9
:101FC000DF92EF92FF920F931F93CF93DF93CDB7E2
:101FD000DEB7CA1BDB0B0FB6F894DEBF0FBECDBF5A
:101FE00009942A88398848885F846E847D848C842B
:101FF0009B84AA84B984C884DF80EE80FD800C8134
:102000001B81AA81B981CE0FD11D0FB6F894DEBF16
:102010000FBECDBFED01089510E0C7E6D0E004C0CB
:10202000FE010E94F1092196C836D107C9F7F8943C
:02203000FFCFE0
:1020320000007103200001000000040207021A02DE
:102042000F02120216021D02000000000000000032
:10205200000000000000000000000000000000007E
:10206200000000000000000000000000000000006E
:10207200000000000000000000000000000000005E
:10208200000000000000000000000000000000004E
:1020920000000000000000000000000000004E4FA1
:1020A200204552524F5200496E76616C6964204954
:1020B2006E64657800496E76616C6964204D657363
:1020C2007361676500496E7465726661636520437A
:1020D2006C6F73656400496E76616C6964204C654F
:1020E2006E67746800496E76616C69642042756639
:1020F200666572204C656E00496E76616C6964207B
:10210200417267756D656E7400496E76616C6964C3
:1021120020436F6D6D616E6400446973636F6E6E10
:1021220065637465640025732025640A00257320A5
:1021320025730A00646973636F6E6E65637400636E
:102142003A0061636B006572726F723A006E6F7073
:102152006500543A2025640A00000000005406B7C6
:0C216200071506A106E7050106F30500BD
:00000001FF
